{
  "_format": "hh-sol-artifact-1",
  "contractName": "BalanceTracker",
  "sourceName": "contracts/BalanceTracker.sol",
  "abi": [
    {
      "anonymous": false,
      "inputs": [
        {
          "indexed": true,
          "internalType": "address",
          "name": "user",
          "type": "address"
        },
        {
          "indexed": false,
          "internalType": "uint256",
          "name": "newBalance",
          "type": "uint256"
        }
      ],
      "name": "BalanceUpdated",
      "type": "event"
    },
    {
      "anonymous": false,
      "inputs": [
        {
          "indexed": false,
          "internalType": "int256",
          "name": "newCount",
          "type": "int256"
        }
      ],
      "name": "CounterUpdated",
      "type": "event"
    },
    {
      "inputs": [],
      "name": "decrement",
      "outputs": [],
      "stateMutability": "nonpayable",
      "type": "function"
    },
    {
      "inputs": [],
      "name": "deposit",
      "outputs": [],
      "stateMutability": "payable",
      "type": "function"
    },
    {
      "inputs": [
        {
          "internalType": "address",
          "name": "user",
          "type": "address"
        }
      ],
      "name": "getBalance",
      "outputs": [
        {
          "internalType": "uint256",
          "name": "",
          "type": "uint256"
        }
      ],
      "stateMutability": "view",
      "type": "function"
    },
    {
      "inputs": [],
      "name": "getCount",
      "outputs": [
        {
          "internalType": "int256",
          "name": "",
          "type": "int256"
        }
      ],
      "stateMutability": "view",
      "type": "function"
    },
    {
      "inputs": [],
      "name": "increment",
      "outputs": [],
      "stateMutability": "nonpayable",
      "type": "function"
    },
    {
      "inputs": [
        {
          "internalType": "uint256",
          "name": "amount",
          "type": "uint256"
        }
      ],
      "name": "withdraw",
      "outputs": [],
      "stateMutability": "nonpayable",
      "type": "function"
    }
  ],
  "bytecode": "0x6080604052348015600f57600080fd5b506109578061001f6000396000f3fe6080604052600436106100555760003560e01c80632baeceb71461005a5780632e1a7d4d14610071578063a87d942c1461009a578063d09de08a146100c5578063d0e30db0146100dc578063f8b2cb4f146100e6575b600080fd5b34801561006657600080fd5b5061006f610123565b005b34801561007d57600080fd5b5061009860048036038101906100939190610572565b610177565b005b3480156100a657600080fd5b506100af610369565b6040516100bc91906105b8565b60405180910390f35b3480156100d157600080fd5b506100da610372565b005b6100e46103c6565b005b3480156100f257600080fd5b5061010d60048036038101906101089190610631565b6104ee565b60405161011a919061066d565b60405180910390f35b600160008082825461013591906106b7565b925050819055507fb5ad271ddbf23445dc5f66a275faf9b2ca18e52f77a8d91181b3db57843102f060005460405161016d91906105b8565b60405180910390a1565b600081116101ba576040517f08c379a00000000000000000000000000000000000000000000000000000000081526004016101b19061077d565b60405180910390fd5b80600160003373ffffffffffffffffffffffffffffffffffffffff1673ffffffffffffffffffffffffffffffffffffffff16815260200190815260200160002054101561023c576040517f08c379a0000000000000000000000000000000000000000000000000000000008152600401610233906107e9565b60405180910390fd5b80600160003373ffffffffffffffffffffffffffffffffffffffff1673ffffffffffffffffffffffffffffffffffffffff168152602001908152602001600020600082825461028b9190610809565b925050819055503373ffffffffffffffffffffffffffffffffffffffff166108fc829081150290604051600060405180830381858888f193505050501580156102d8573d6000803e3d6000fd5b503373ffffffffffffffffffffffffffffffffffffffff167f8ad64a0ac7700dd8425ab0499f107cb6e2cd1581d803c5b8c1c79dcb8190b1af600160003373ffffffffffffffffffffffffffffffffffffffff1673ffffffffffffffffffffffffffffffffffffffff1681526020019081526020016000205460405161035e919061066d565b60405180910390a250565b60008054905090565b6001600080828254610384919061083d565b925050819055507fb5ad271ddbf23445dc5f66a275faf9b2ca18e52f77a8d91181b3db57843102f06000546040516103bc91906105b8565b60405180910390a1565b60003411610409576040517f08c379a0000000000000000000000000000000000000000000000000000000008152600401610400906108cd565b60405180910390fd5b34600160003373ffffffffffffffffffffffffffffffffffffffff1673ffffffffffffffffffffffffffffffffffffffff168152602001908152602001600020600082825461045891906108ed565b925050819055503373ffffffffffffffffffffffffffffffffffffffff167f8ad64a0ac7700dd8425ab0499f107cb6e2cd1581d803c5b8c1c79dcb8190b1af600160003373ffffffffffffffffffffffffffffffffffffffff1673ffffffffffffffffffffffffffffffffffffffff168152602001908152602001600020546040516104e4919061066d565b60405180910390a2565b6000600160008373ffffffffffffffffffffffffffffffffffffffff1673ffffffffffffffffffffffffffffffffffffffff168152602001908152602001600020549050919050565b600080fd5b6000819050919050565b61054f8161053c565b811461055a57600080fd5b50565b60008135905061056c81610546565b92915050565b60006020828403121561058857610587610537565b5b60006105968482850161055d565b91505092915050565b6000819050919050565b6105b28161059f565b82525050565b60006020820190506105cd60008301846105a9565b92915050565b600073ffffffffffffffffffffffffffffffffffffffff82169050919050565b60006105fe826105d3565b9050919050565b61060e816105f3565b811461061957600080fd5b50565b60008135905061062b81610605565b92915050565b60006020828403121561064757610646610537565b5b60006106558482850161061c565b91505092915050565b6106678161053c565b82525050565b6000602082019050610682600083018461065e565b92915050565b7f4e487b7100000000000000000000000000000000000000000000000000000000600052601160045260246000fd5b60006106c28261059f565b91506106cd8361059f565b92508282039050818112600084121682821360008512151617156106f4576106f3610688565b5b92915050565b600082825260208201905092915050565b7f576974686472617720616d6f756e74206d75737420626520677265617465722060008201527f7468616e207a65726f0000000000000000000000000000000000000000000000602082015250565b60006107676029836106fa565b91506107728261070b565b604082019050919050565b600060208201905081810360008301526107968161075a565b9050919050565b7f496e73756666696369656e742062616c616e6365000000000000000000000000600082015250565b60006107d36014836106fa565b91506107de8261079d565b602082019050919050565b60006020820190508181036000830152610802816107c6565b9050919050565b60006108148261053c565b915061081f8361053c565b925082820390508181111561083757610836610688565b5b92915050565b60006108488261059f565b91506108538361059f565b92508282019050828112156000831216838212600084121516171561087b5761087a610688565b5b92915050565b7f4d7573742073656e6420736f6d65206574686572000000000000000000000000600082015250565b60006108b76014836106fa565b91506108c282610881565b602082019050919050565b600060208201905081810360008301526108e6816108aa565b9050919050565b60006108f88261053c565b91506109038361053c565b925082820190508082111561091b5761091a610688565b5b9291505056fea26469706673582212200fca4e6768f085cdd63029e13c03660f3f9c9b177acca5f1c3f9be14a0d11eba64736f6c634300081c0033",
  "linkReferences": {},
  "deployedLinkReferences": {}
}